{
  "transactions": [
    {
      "hash": "0x13c9988752baefe407c0db525592cc201fd496e3d8a18726442191123a383d2b",
      "transactionType": "CALL",
      "contractName": null,
      "contractAddress": "0x0aa77a866f3d7f61b294477c87cd41817ca5c6a0",
      "function": "createCampaign(string,string,uint256,uint256,string)",
      "arguments": [
        "First creation test",
        "test creating a campaign",
        "10000000",
        "29550",
        "DeFi"
      ],
      "transaction": {
        "from": "0x270c99e0e1409f63a83adb2db4fbeb5752b0fbc2",
        "to": "0x0aa77a866f3d7f61b294477c87cd41817ca5c6a0",
        "gas": "0x43524",
        "value": "0x0",
        "input": "0xd4e3dd6f00000000000000000000000000000000000000000000000000000000000000a000000000000000000000000000000000000000000000000000000000000000e00000000000000000000000000000000000000000000000000000000000989680000000000000000000000000000000000000000000000000000000000000736e000000000000000000000000000000000000000000000000000000000000012000000000000000000000000000000000000000000000000000000000000000134669727374206372656174696f6e207465737400000000000000000000000000000000000000000000000000000000000000000000000000000000000000001874657374206372656174696e6720612063616d706169676e000000000000000000000000000000000000000000000000000000000000000000000000000000044465466900000000000000000000000000000000000000000000000000000000",
        "nonce": "0x1b",
        "chainId": "0x2105"
      },
      "additionalContracts": [],
      "isFixedGasLimit": false
    },
    {
      "hash": "0xcb9c252d6d49f446208d7cb50f46a17074b33b2099db24528972c242ff00f7dc",
      "transactionType": "CALL",
      "contractName": null,
      "contractAddress": "0x0aa77a866f3d7f61b294477c87cd41817ca5c6a0",
      "function": "createCampaign(string,string,uint256,uint256,string)",
      "arguments": [
        "Test 2",
        "new test",
        "50000000",
        "162509",
        "Technology"
      ],
      "transaction": {
        "from": "0x270c99e0e1409f63a83adb2db4fbeb5752b0fbc2",
        "to": "0x0aa77a866f3d7f61b294477c87cd41817ca5c6a0",
        "gas": "0x3d202",
        "value": "0x0",
        "input": "0xd4e3dd6f00000000000000000000000000000000000000000000000000000000000000a000000000000000000000000000000000000000000000000000000000000000e00000000000000000000000000000000000000000000000000000000002faf0800000000000000000000000000000000000000000000000000000000000027acd00000000000000000000000000000000000000000000000000000000000001200000000000000000000000000000000000000000000000000000000000000006546573742032000000000000000000000000000000000000000000000000000000000000000000000000000000000000000000000000000000000000000000086e65772074657374000000000000000000000000000000000000000000000000000000000000000000000000000000000000000000000000000000000000000a546563686e6f6c6f677900000000000000000000000000000000000000000000",
        "nonce": "0x1c",
        "chainId": "0x2105"
      },
      "additionalContracts": [],
      "isFixedGasLimit": false
    }
  ],
  "receipts": [
    {
      "status": "0x1",
      "cumulativeGasUsed": "0x34d01c6",
      "logs": [
        {
          "address": "0x0aa77a866f3d7f61b294477c87cd41817ca5c6a0",
          "topics": [
            "0x2e64da7e06e88ccd84d69eccb21119ca81e40e5648611e89edfe888c8fa62597",
            "0x0000000000000000000000000000000000000000000000000000000000000000"
          ],
          "data": "0x000000000000000000000000270c99e0e1409f63a83adb2db4fbeb5752b0fbc200000000000000000000000000000000000000000000000000000000009896800000000000000000000000000000000000000000000000000000000068269cf30000000000000000000000000000000000000000000000000000000000000080000000000000000000000000000000000000000000000000000000000000001874657374206372656174696e6720612063616d706169676e0000000000000000",
          "blockHash": "0xcd671e765b81e7280cf26bc26484ac3bf06c725d2c9e09dca757da3290ed128e",
          "blockNumber": "0x1cde651",
          "transactionHash": "0x13c9988752baefe407c0db525592cc201fd496e3d8a18726442191123a383d2b",
          "transactionIndex": "0xcf",
          "logIndex": "0x25e",
          "removed": false
        }
      ],
      "logsBloom": "0x00000000000000000000000000000000000000000000000000000000000000000000000000000000000000000000000000000000000000000000000000000000000000000040000000000000000000000000000000000000000000000000400000000000020000000000000000000800000000000000000000000000000000000000000000000000000000000000000000000000000000000000000000008000000000000000000000000000000000000000000000000000000000000000000000000000000000000000000000000000000000000000002000000000800020000000000000000080000000000000000000000000000000000000000000000000",
      "type": "0x2",
      "transactionHash": "0x13c9988752baefe407c0db525592cc201fd496e3d8a18726442191123a383d2b",
      "transactionIndex": "0xcf",
      "blockHash": "0xcd671e765b81e7280cf26bc26484ac3bf06c725d2c9e09dca757da3290ed128e",
      "blockNumber": "0x1cde651",
      "gasUsed": "0x2e082",
      "effectiveGasPrice": "0x391333",
      "from": "0x270c99e0e1409f63a83adb2db4fbeb5752b0fbc2",
      "to": "0x0aa77a866f3d7f61b294477c87cd41817ca5c6a0",
      "contractAddress": null,
      "l1BaseFeeScalar": "0x8dd",
      "l1BlobBaseFee": "0x1",
      "l1BlobBaseFeeScalar": "0x101c12",
      "l1Fee": "0x51252fdc4",
      "l1GasPrice": "0xf2c99594",
      "l1GasUsed": "0x934"
    },
    {
      "status": "0x1",
      "cumulativeGasUsed": "0x2ff11ba",
      "logs": [
        {
          "address": "0x0aa77a866f3d7f61b294477c87cd41817ca5c6a0",
          "topics": [
            "0x2e64da7e06e88ccd84d69eccb21119ca81e40e5648611e89edfe888c8fa62597",
            "0x0000000000000000000000000000000000000000000000000000000000000001"
          ],
          "data": "0x000000000000000000000000270c99e0e1409f63a83adb2db4fbeb5752b0fbc20000000000000000000000000000000000000000000000000000000002faf080000000000000000000000000000000000000000000000000000000006828a454000000000000000000000000000000000000000000000000000000000000008000000000000000000000000000000000000000000000000000000000000000086e65772074657374000000000000000000000000000000000000000000000000",
          "blockHash": "0x1f55dffbbae10467a11ad3b52c344b247b947b9096563671b6f5613ca2cb7921",
          "blockNumber": "0x1cde652",
          "transactionHash": "0xcb9c252d6d49f446208d7cb50f46a17074b33b2099db24528972c242ff00f7dc",
          "transactionIndex": "0xd7",
          "logIndex": "0x2af",
          "removed": false
        }
      ],
      "logsBloom": "0x00000000000000000000000000000000000000000000000000000000000000000000000000000000000000000000000000000000000000000000000000040000000000000040000000000000000000000000000000040000000000000000400000000000000000000000000000000000000000000000000000000000000000000000000000000000000000000000000000000000000000000000000000008000000000000000000000000000000000000000000000000000000000000000000000000000000000000000000000000000000000000000002000000000800040000000000000000080000000000000000000000000000000000000000000000000",
      "type": "0x2",
      "transactionHash": "0xcb9c252d6d49f446208d7cb50f46a17074b33b2099db24528972c242ff00f7dc",
      "transactionIndex": "0xd7",
      "blockHash": "0x1f55dffbbae10467a11ad3b52c344b247b947b9096563671b6f5613ca2cb7921",
      "blockNumber": "0x1cde652",
      "gasUsed": "0x29cba",
      "effectiveGasPrice": "0x390f0d",
      "from": "0x270c99e0e1409f63a83adb2db4fbeb5752b0fbc2",
      "to": "0x0aa77a866f3d7f61b294477c87cd41817ca5c6a0",
      "contractAddress": null,
      "l1BaseFeeScalar": "0x8dd",
      "l1BlobBaseFee": "0x1",
      "l1BlobBaseFeeScalar": "0x101c12",
      "l1Fee": "0x49cdb79a0",
      "l1GasPrice": "0xf46ada6f",
      "l1GasUsed": "0x851"
    }
  ],
  "libraries": [],
  "pending": [],
  "returns": {},
  "timestamp": 1747331465,
  "chain": 8453,
  "commit": "ce6b18a"
}